:020000040000FA
:10000000D87C00206D020000810200008302000005
:10001000850200008502000085020000000000004B
:10002000000000000000000000000000C902000005
:1000300085020000000000001D030000FD06000016
:100040008502000085020000850200008502000094
:100050008502000085020000850200008502000084
:100060008502000085020000850200008502000074
:100070008502000085020000850200008502000064
:100080008502000085020000850200008502000054
:100090008502000085020000850200008502000044
:1000A0008502000085020000850200008502000034
:1000B0008502000085020000850200008502000024
:1000C0008502000085020000850200008502000014
:1000D0008502000085020000850200008502000004
:1000E0008502000000000000000000008502000002
:1000F00085020000850200008502000085020000E4
:1001000085020000850200008502000085020000D3
:1001100000000000000000008502000085020000D1
:1001200085020000850200008502000085020000B3
:1001300085020000850200008502000085020000A3
:1001400000000000000000000000000000000000AF
:100150008502000085020000850200008502000083
:10016000000000000000000000000000000000008F
:10017000000000000000000000000000000000007F
:10018000000000000000000000000000000000006F
:10019000000000000000000000000000000000005F
:1001A000000000000000000000000000000000004F
:1001B0008502000085020000850200008502000023
:1001C0008502000085020000850200008502000013
:1001D0008502000085020000850200008502000003
:1001E000850200008502000085020000000000007A
:1001F000000000008502000085020000850200006A
:1002000085020000850200000000000000000000E0
:1002100085020000850200008502000085020000C2
:1002200085020000850200008502000085020000B2
:1002300085020000850200008502000085020000A2
:100240008502000085020000850200008502000092
:100250008502000085020000850200008502000082
:100260008502000085020000850200004EF68850DD
:10027000CEF20000016841F47001016000F004B8A2
:10028000FEE7FEE7FEE70000DFF810D000F08AF896
:1002900000480047DB070000AFF30080D87C002057
:1002A000EFF3108072B67047EFF310807047EFF3F2
:1002B000108062B6704730BF704780F31188704776
:1002C000EFF31180704700002A4B19680868B0E806
:1002D000F04F80F30988BFF36F8F4FF0000080F379
:1002E000118870470000000006480068006880F32D
:1002F000088862B661B6BFF34F8FBFF36F8F00DF20
:1003000000BF00BF08ED00E0DFF80C00016841F419
:1003100070010160704700BF88ED00E0EFF30980D5
:10032000BFF36F8F134B1A681EF0100F08BF20ED3C
:10033000108A20E9F04F106008B44FF0400080F3BD
:100340001188BFF34F8FBFF36F8F01F06BFA4FF03F
:10035000000080F3118808BC19680868B0E8F04F05
:100360001EF0100F08BFB0EC108A80F30988BFF3AD
:100370006F8F704704000020EFF30580704740EA5C
:1003800001039B0703D009E008C9121F08C0042A13
:10039000FAD203E011F8013B00F8013B521EF9D2FA
:1003A00070470000064C074D06E0E06840F001038E
:1003B00094E8070098471034AC42F6D3FFF768FF83
:1003C0007C2600009C26000010B5044601F008F8C9
:1003D0000348006801F016F901F02CF810BD000088
:1003E0000000002010B50249024800F025F810BDB9
:1003F000000E2707400500F110B5FFF758FF08B1C0
:10040000012010BD0020FCE71CB505480121002398
:100410004A02CDE9001003A1064801F0E1FD1CBD30
:10042000000000204170705461736B437265617409
:1004300065000000C90300002DE9FE4F05468A460D
:10044000A3480068A3490840A349884202D100207C
:10045000BDE8FE8FC5F3841705F03800102805D1DC
:10046000DFF87892002600BF152748E005F0380035
:10047000302804D147F230594FF400163FE005F020
:100480003800382804D14FF400494FF4800636E094
:1004900005F0380078BB1A2F01DC092F01DA0020A3
:1004A000D6E78F4850F827904FF4401646F0407634
:1004B0008748C06F20F01C000190072F03DB0198D4
:1004C00040F01000019082490198C8674FF4002065
:1004D000009005E00098401E0090009800B905E0EB
:1004E0007B48006D00F480700028F3D000BF0098B6
:1004F00028B90020ACE7FFE74FF00009002605F41B
:100500006050002873D105F0380028B105F038009C
:10051000102801D000209BE7C5F3026002907148CB
:1005200000F038F96A49C03108606948D0F8B00075
:100530006D4900EA010444F000446548B0300460AD
:10054000093F6A49029851F820005044401EB0FB10
:10055000FAF85F48D0F8B00030435D49B031086028
:10056000029800EBC00000EB4000614901EBC000C5
:1005700007EB470100EB810040685549C1F8640171
:100580005C480168A8F1010041EA00205049C1F827
:100590006401029800EBC00000EB4000544901EBFD
:1005A000C00007EB470150F821005249091F0968B4
:1005B00001F4000108434F49091F0860484600F054
:1005C000B7F84FEA500A504600F0E4F84049C1F845
:1005D000C0000846D0F8600100F4000040B13C487B
:1005E000B030006840F08040C1F8B00008E02BE077
:1005F0004048001F006840F400003549C1F8600120
:100600004FF4004B08E03B48001D006800F001007B
:1006100000B104E0ABF1010BBBF1000FF3DC00BF54
:10062000BBF1000F0DD02A48B030046846F001003D
:1006300040F08050044344F000442548C0F8B040E6
:100640003CE04FF0000A39E0244800F0A3F82949C3
:10065000A43908601E48D0F8600120F400001C494D
:10066000C1F860010846D0F8B0402348044044F087
:1006700000441748B0300460BAF1000F02D14FF0C7
:1006800000080AE0B9FBFAF8B8F1000F01D0A8F1B0
:10069000010808F10100B9FBF0FA504600F07AF8C1
:1006A0001449A43908600A48D0F8B04046EA8820C6
:1006B000044344F000440648B03004600448B030BD
:1006C000006820F470000249C1F8B0005046BFE64F
:1006D00000E00F400000FF70000005100024F4004F
:1006E0002824000040787D0100FC0FE07426000003
:1006F0009424000064E10F40FF0300EF10B500BF39
:10070000402080F31188BFF34F8FBFF36F8F00BF7E
:1007100001F0ACFC18B14FF080500449086000BFF4
:10072000002080F3118800BF10BD000004ED00E040
:10073000F0B50146DFF858C0DCF860C1CCF389237E
:10074000DFF84CC0DCF860C1CCF30905DFF840C02D
:10075000DCF864C1CCF3042C0CF10106DFF830C0E6
:10076000DCF864C10CF01F0C0CF10107B1FBF7F1D0
:100770005A09A3EB421401FB05F001FB02FC00EB5C
:100780005C1001FB04FC00EB9C20B0FBF6F0F0BD1C
:1007900000E00F40024600210AE0074850F831000F
:1007A000904204D3044800EBC10040687047491CE4
:1007B0000629F2D30020F9E74426000002E008C829
:1007C000121F08C1002AFAD170477047002001E0CB
:1007D00001C1121F002AFBD170470124FFF702FE5E
:1007E000FFF712FE0446012C07D1FFF705FE00209B
:1007F00080F3118800BF00F0C3FF00BFFEE70000D8
:100800002DE9F04105460E4616480768164800686F
:10081000001D00F09BFD681C38B936B11248016814
:10082000091D124800F0D0FD1AE07C190E4800683E
:100830004460BC4207D20C480168091D0C4800689E
:1008400000F0A8FD0CE008480168091D094800688F
:1008500000F0A0FD08480068844201D20648046008
:10086000BDE8F0811800002004000020980300205B
:100870000C000020080000203400002010B50446C1
:1008800000F0AEFD22480068401C21490860214864
:10089000006840B91F4804600846006801280DD16F
:1008A00000F0CAF90AE01C48006838B91948006825
:1008B000C06AE16A884201D8164804601748006897
:1008C000401C164908601649E06A0968884202D946
:1008D0001349E06A0860E16A01EB8101114A02EB09
:1008E0008100211D00F070FD00F0A4FD0A480068A1
:1008F00068B108480068C06AE16A884207D24FF0D0
:10090000805009490860BFF34F8FBFF36F8F10BD50
:1009100014000020040000202000002030000020EF
:100920001C000020C800002004ED00E010B500F01D
:1009300057FD10480068D0B90F4800F01BFD0F4864
:1009400000F018FD0C480E4908600C480D4908607D
:1009500000220C210F2001F04BF8064908600846E0
:10096000006820B108A10348006800F00FFE00F005
:1009700061FD10BD48000020AC030020C003002032
:100980004000002044000020546D7251000000001F
:1009900070B523E000F03EFF1348006808B901205D
:1009A00000E00020054601F04FFCBDB900F018FD45
:1009B0000D48C068C468201D00F0C8FC0B480068E2
:1009C000401E0A4908600A480068401E084908603D
:1009D00000F030FD204600F057F800BF04480068E2
:1009E0000028D7D170BD000084030020140000202F
:1009F0001000002070B504460D46206C70B1216CCB
:100A0000E0680844E0606168E068884201D32068DB
:100A1000E0602846226CE168FFF7B1FC70BD2DE96B
:100A2000F04104460F4615464FF00008A66B206CB7
:100A300028B37DB93946226CA068FFF7A0FC216C71
:100A4000A0680844A060D4E90110884217D3206848
:100A5000A06014E03946226CE068FFF790FC216C3E
:100A6000E068401AE0602168E068884203D2216CA7
:100A70006068401AE060022D01D106B1761E701C3C
:100A8000A0634046BDE8F08110B50446206B00F03D
:100A9000EFFC204600F0ECFC10BD00000146084AC7
:100AA000126812680AB9012200E000220A600A688E
:100AB00022B9034A1268D268106800E0002070472B
:100AC0004000002030B54FF4F043174800F0070411
:100AD0002CB1C01D20F00700134C041B1B1B024649
:100AE000124C22600024114D6C60D018083820F0A0
:100AF00007000F4C206000240D4D2D686C600C4DDC
:100B00002D682C601146441A4C60094C24680C6016
:100B1000084D4C682C60084D4C682C604FF0004428
:100B2000064D2C6030BD0000D4030020540000208E
:100B30005C000020640000206000002068000020AD
:100B400000BFFFF725FF064800680128F9D94FF0DC
:100B5000805004490860BFF34F8FBFF36F8FF0E7F9
:100B6000C800002004ED00E02DE9F04106460D46E6
:100B700017469846069C0DB9246000E02760E6639E
:100B800025640121204601F031F80020A064BDE871
:100B9000F0812DE9FF5F81460E469246DDE90E7B2E
:100BA000109CAAF10100216B01EB800828F00708D6
:100BB00008F0070008B9012000E0002050B900BF8C
:100BC000402080F31188BFF34F8FBFF36F8F00BFBA
:100BD00000BFFEE7002507E0715D04F134004155D8
:100BE000705D00B902E06D1C202DF5D300BF00211F
:100BF00053200155202F00D31F27E762201D00F04E
:100C0000C6FB04F1180000F0C2FB2461C7F120000C
:100C1000A06164620020606584F85800494640463F
:100C2000039A00F07DFB2060BBF1000F01D0CBF8F0
:100C30000040BDE8FF9F000010B5002407E004EB72
:100C400084010F4A02EB810000F094FB641C202C0D
:100C5000F5D30C4800F08EFB0B4800F08BFB0B48E3
:100C600000F088FB0A4800F085FB0A4800F082FB90
:100C700004480949086004480849086010BD00009C
:100C8000C8000020480300205C03002070030020FF
:100C90008403002098030020080000200C0000209E
:100CA00010B50146164800E0006803688B42FBD38C
:100CB0000246436813448B4204D143684C68234482
:100CC000436001460A464B6813440468A34211D1AD
:100CD0000C4C03682468A34208D04B68046864681D
:100CE00023444B6003681B680B6005E0054B1B68E1
:100CF0000B6001E003680B60884200D0016010BD0A
:100D0000540000205C0000202DE9F04104460D460F
:100D100016461F464FF0000865602461B5420CD8A6
:100D2000F01BA169884202D34FF0010811E0211D98
:100D30000948006800F02EFB0BE0BE4204D2BD4221
:100D400002D34FF0010804E0211D0448006800F0C0
:100D500021FB4046BDE8F081440000204000002017
:100D600070B5054600F03CFBA86B08B9012400E013
:100D7000002400F05FFB204670BD70B5054600F012
:100D80002FFBA86BE96B884201D1012400E000240D
:100D900000F050FB204670BD2DE9F3410D46009850
:100DA000846C002754B900BF402080F31188BFF342
:100DB0004F8FBFF36F8F00BF00BFFEE7A06BE16BEB
:100DC000884201D2012000E0002050B900BF40203D
:100DD00080F31188BFF34F8FBFF36F8F00BF00BF49
:100DE000FEE7A06BE16B88421BD294F945602A466E
:100DF00069462046FFF713FE0746701C60B9606A1B
:100E000008B9012000E0002050B904F1240001F0ED
:100E1000CFF928B1012703E0701C40B284F84500E7
:100E200000BF3846BDE8FC81F8B505460F461648B8
:100E30000068C068C468201D00F088FAE0690128D5
:100E40001DD1A06941192B463A462046FFF75CFFA9
:100E5000A8B1002003462A4601460090204601F032
:100E6000A1FA064656B900BF402080F31188BFF3AF
:100E70004F8FBFF36F8F00BF00BFFEE700BF20465C
:100E8000616A8847F8BD00004000002070B586B058
:100E90006AE00398002867DB059C606908B90120B7
:100EA00000E0002010B9201D00F050FA02A800F068
:100EB000BDF8054603980A2854D2DFE800F009057A
:100EC0000731334F0608323400BF00BF00BF00BFF8
:100ED0000498A269811803462A462046FFF714FFAA
:100EE000E8B12046616A8847E069012817D10020EF
:100EF00000900498A169421800231946204601F089
:100F000051FA064656B900BF402080F31188BFF35E
:100F10004F8FBFF36F8F00BF00BFFEE700BF22E01F
:100F200000BF20E000BF0498A061A06908B10120C3
:100F300000E0002050B900BF402080F31188BFF3CB
:100F40004F8FBFF36F8F00BF00BFFEE7A06941194D
:100F50002B462A462046FFF7D7FE04E0204600F045
:100F600087FA00E000BF00BF00231A4603A9044827
:100F7000006800F069FD00288BD106B070BD00004C
:100F800048000020F8B505460C4600F043FC6846D2
:100F900000F04CF80646009820BB44B9B54206D88C
:100FA00001F052F931462846FFF73EFF1CE03CB104
:100FB0000E480068006808B9012000E000200446DF
:100FC000A91B22460A48006800F0F6FA01F03CF935
:100FD00050B94FF0805007490860BFF34F8FBFF3FF
:100FE0006F8F01E001F030F9F8BD000044000020EF
:100FF0004800002004ED00E00A490968096809B9C1
:10100000012100E0002121B14FF0FF31064A1160BB
:1010100006E004490968C968C868034A4168116064
:1010200070470000080000203400002070B504461E
:1010300001F016F8054607480068854204D200F022
:101040000BF80120206001E00020206001480560CD
:10105000284670BD500000202DE9F84332E02448B6
:101060000068C068056822480068C068C468201D20
:1010700000F06CF92046616A8847E069012821D1B7
:10108000A0694619AE4207D966602461211D18483F
:10109000006800F07FF915E0002003462A4601466B
:1010A0000090204601F07EF9074657B900BF402066
:1010B00080F31188BFF34F8FBFF36F8F00BF00BF66
:1010C000FEE700BF0A480068006808B9012000E098
:1010D00000200028C3D00648D0F8008005480068EA
:1010E000034908600348C0F80080BDE8F8830000A9
:1010F00040000020440000200E480068401C08B951
:10110000012000E0002050B900BF402080F311888A
:10111000BFF34F8FBFF36F8F00BF00BFFEE700BF6D
:10112000402080F31188BFF34F8FBFF36F8F00BF54
:1011300000BFFEE76C00002008B500BF6846FFF75F
:10114000ADFC044620460099FFF71CFFFFF79EFE0A
:10115000F4E770B5044600F043F994F945501AE0FD
:10116000A06C38B100212046FFF716FE88B100F0D0
:10117000ADFA0EE0606A08B9012000E0002038B93D
:1011800004F1240001F014F818B100F09FFA00E017
:1011900003E0681E45B2002DE2DC00BFFF2084F8AA
:1011A000450000F047F900F01BF994F9445010E0B5
:1011B000206908B9012000E0002048B904F11000BE
:1011C00000F0F6FF08B100F081FA681E45B200E0B9
:1011D00001E0002DECDC00BFFF2084F8440000F0AB
:1011E00029F970BD2DE9F04104464FF0000800F0E8
:1011F00011FB4648006808B9FFF764FC44480068E2
:10120000204000286BD1D4B1083404F00700B0B1FD
:1012100004F00700C0F10800044404F0070008B916
:10122000012000E0002050B900BF402080F3118869
:10123000BFF34F8FBFF36F8F00BF00BFFEE7002CDF
:101240004DD034480068844249D8334E3046056852
:1012500001E02E462D686868A04202D22868002866
:10126000F7D12A480068854239D0306800F1080873
:10127000286830606868001B102819D92F1907F0FA
:10128000070008B9012000E0002050B900BF40204D
:1012900080F31188BFF34F8FBFF36F8F00BF00BF84
:1012A000FEE76868001B78606C603846FFF7F8FC62
:1012B000184968680968081A1649086008460068ED
:1012C00016490968884203D2124800681349086029
:1012D0000F4968680968084368600020286000F0CA
:1012E000B3FF08F0070008B9012000E0002050B962
:1012F00000BF402080F31188BFF34F8FBFF36F8F83
:1013000000BF00BFFEE74046BDE8F0815C00002062
:1013100068000020600000205400002064000020CD
:10132000001F4FF080730360001F21F00103036072
:10133000001F054B036014380260001F6FF00203AA
:101340000360203870470000F910000001460A6968
:10135000D1E901309860D1E90103586050688842B2
:1013600001D188685060002008611068401E10603C
:101370001068704700F1080141604FF0FF31816053
:1013800000F10801C1600161002101607047002186
:101390000161704710B502460B685C1C0CB91069FE
:1013A00007E002F1080000E04068446824689C42BD
:1013B000FAD944684C604C68A160886041600A6159
:1013C0001468641C146010BD42684A6093688B60A6
:1013D000936859609160086103685B1C0360704703
:1013E00000BF402080F31188BFF34F8FBFF36F8F92
:1013F00000BF0E480068401C0C49086008460068A1
:10140000012812D10A480068C0B208B9012000E0E2
:10141000002050B900BF402080F31188BFF34F8FE8
:10142000BFF36F8F00BF00BFFEE770476C00002066
:1014300004ED00E00D48006850B900BF402080F383
:101440001188BFF34F8FBFF36F8F00BF00BFFEE760
:1014500006480068401E054908600846006820B933
:10146000002080F3118800BF00BF70476C0000208F
:1014700070B506463546002E3FD0083D2C461F4924
:1014800060680968084008B1012000E0002050B9F8
:1014900000BF402080F31188BFF34F8FBFF36F8FE1
:1014A00000BF00BFFEE7206808B9012000E000206F
:1014B00050B900BF402080F31188BFF34F8FBFF3B6
:1014C0006F8F00BF00BFFEE70C49606809680840E5
:1014D00098B1206888B909496068096888436060E4
:1014E00000F098F9064960680968084404490860F2
:1014F0002046FFF7D5FB00F0A7FE70BD6800002076
:101500006000002042F6DF604FF0E02148610720D4
:101510000861704770B5FEF72FFF0446102C16D3F4
:1015200004F1E02090F8F05315480078854201DB83
:10153000012000E0002050B900BF402080F3118856
:10154000BFF34F8FBFF36F8F00BF00BFFEE70D48A3
:10155000006800F4E0600C490968884201D8012065
:1015600000E0002050B900BF402080F31188BFF395
:101570004F8FBFF36F8F00BF00BFFEE770BD00004D
:10158000700000200CED00E07400002002460020F6
:101590000BE0084B53F8303033B9064B43F83010AA
:1015A00003EBC0035A6002E0401C0A28F1D300BFDD
:1015B00070470000780000202DE9F04105460E46F6
:1015C00017462C46FFF70CFF94F94400401C10B955
:1015D000002084F8440094F94500401C10B9002014
:1015E00084F84500FFF726FFA06B28B93A4631463C
:1015F00004F1240000F08CF82046FFF7AAFDBDE8B6
:10160000F081000070B50546FFF7EAFE15B92748DE
:10161000006800E028460446201DFFF797FEA06AF8
:1016200018B104F11800FFF791FE21480068401C32
:101630001F4908601D480068844209D1211D1D48CA
:10164000FFF7C2FE1C480068401C1B49086009E007
:101650001A480068401E194908602046FFF714FA2E
:10166000FFF7CAFCFFF7E6FE15480068E8B10F482F
:101670000068844219D11348006808B9012000E0CD
:10168000002050B900BF402080F31188BFF34F8F76
:10169000BFF36F8F00BF00BFFEE74FF080500A49D5
:1016A0000860BFF34F8FBFF36F8F70BD0400002041
:1016B00030000020840300201000002014000020CF
:1016C000200000203C00002004ED00E00120014942
:1016D000086070472800002070B504460D4654B9D4
:1016E00000BF402080F31188BFF34F8FBFF36F8F8F
:1016F00000BF00BFFEE70548016818312046FFF72C
:1017000049FE01212846FFF77BF870BD0400002048
:1017100070B505460E46144655B900BF402080F30B
:101720001188BFF34F8FBFF36F8F00BF00BFFEE77D
:101730000648016818312846FFF746FE0CB14FF005
:10174000FF3621463046FFF75BF870BD04000020ED
:1017500050B900BF402181F31188BFF34F8FBFF311
:101760006F8F00BF00BFFEE70349096801600349AE
:1017700009684160704700002C000020180000201C
:101780001CB51D4800210B468022CDE900101BA18D
:101790001C4800F025FC0446012C02D100F0D6FDC7
:1017A0000446012C15D100BF402080F31188BFF3FF
:1017B0004F8FBFF36F8F00BF4FF0FF3012490860AB
:1017C00001201249086000201149086000F072F8F9
:1017D00010E0601C08B1012000E0002050B900BFFB
:1017E000402080F31188BFF34F8FBFF36F8F00BF8E
:1017F00000BFFEE71CBD00003800002049444C45F6
:1018000000000000410B00003400002020000020F8
:101810001800002002480068401C01490860704719
:101820003C0000201E48006818B101201D490860D6
:1018300034E000201B4908601B4801680CE051B9E6
:1018400000BF402080F31188BFF34F8FBFF36F8F2D
:1018500000BF00BFFEE7491E01EB8100134A52F8AA
:10186000200008B9012000E000200028E7D101EBAA
:1018700081020E4B03EB820042685268426000F125
:1018800008024368934202D142685268426042684B
:10189000D268074B1A600448016000BF704700001F
:1018A0003C000020280000201C000020C800002070
:1018B000040000201CB5474800684749884201D011
:1018C000012000E0002050B900BF402080F31188C3
:1018D000BFF34F8FBFF36F8F00BF00BFFEE73D48E0
:1018E00000683D49491E884201D0012000E00020E7
:1018F00050B900BF402080F31188BFF34F8FBFF372
:101900006F8F00BF00BFFEE73449084600780190A2
:10191000FF200A4610700846007800909DF80000ED
:1019200000F0E0009DF80020904201D1012000E08D
:10193000002050B900BF402080F31188BFF34F8FC3
:10194000BFF36F8F00BF00BFFEE79DF8000000F0FF
:101950004000234A10700720224A106009E0214805
:101960000068401E1F4A10609DF800004006000EEF
:1019700000909DF8000000F080008028EFD019480A
:1019800000680002174A10601046008800F4E0600A
:101990001060124A019810700E482030006840F420
:1019A00060000C49203108600846006840F0604043
:1019B0000860FFF7A7FD00200B490860FEF7A4FCB4
:1019C0000A48006840F0404008490860FEF78CFC77
:1019D00000201CBD00ED00E071C20F4100E400E0FA
:1019E00070000020740000206C00002034EF00E044
:1019F0002DE9F84305460E4690460DB1012000E062
:101A0000002050B900BF402080F31188BFF34F8FF2
:101A1000BFF36F8F00BF00BFFEE70EB9002701E0E4
:101A200005FB06F707F14C00FFF7DCFB044644B169
:101A300004F14C0943464A46314628460094FFF7D4
:101A400093F82046BDE8F8832DE9FF4782B00546AC
:101A50000E461F464FF0000A2C4654B900BF4020E6
:101A600080F31188BFF34F8FBFF36F8F00BF00BFAC
:101A7000FEE70EB9206C08B9012000E0002050B943
:101A800000BF402080F31188BFF34F8FBFF36F8FEB
:101A900000BF00BFFEE700F0D3FA08B9049808B908
:101AA000012000E0002050B900BF402080F31188E1
:101AB000BFF34F8FBFF36F8F00BF00BFFEE700BFC4
:101AC000FFF78EFCD4F83890B9F1000F38D0D4F875
:101AD0000C8031462046FEF78DFFB7B9A9F1010011
:101AE000A063206908B9012000E0002010BB04F1C8
:101AF000100000F05DFBE8B14FF080503A490860FB
:101B0000BFF34F8FBFF36F8F14E0C4F80C80606A8F
:101B100008B9012000E0002060B904F1240000F0C1
:101B200047FB38B14FF080502F490860BFF34F8F0B
:101B3000BFF36F8FFFF77EFC012006B0BDE8F08792
:101B4000049818B9FFF776FC0020F6E7BAF1000F09
:101B500004D16846FFF7FCFD4FF0010AFFF76AFC6D
:101B6000FFF758FEFFF73CFC94F94400401C10B905
:101B7000002084F8440094F94500401C10B900206E
:101B800084F84500FFF756FC04A9684600F0E2F926
:101B9000F0B92046FFF7E4F8A0B104F1240004995D
:101BA000FFF79AFD2046FFF7D4FA00F04DFB00281E
:101BB00086D14FF080500C490860BFF34F8FBFF3C0
:101BC0006F8F7DE72046FFF7C4FA00F03DFB77E713
:101BD0002046FFF7BEFA00F037FB2046FFF7C0F8BB
:101BE0000028EED00020A8E704ED00E070B505461F
:101BF0000E462C4654B900BF402080F31188BFF335
:101C00004F8FBFF36F8F00BF00BFFEE7FFF7E8FB0A
:101C1000D4E90F12206801FB020060600020A0637D
:101C20002068A060E06B401E226C216800FB02105F
:101C3000E060FF2084F8440084F845009EB92069E4
:101C400008B9012000E00020A8B904F1100000F05C
:101C5000AFFA80B14FF0805009490860BFF34F8F51
:101C6000BFF36F8F07E004F11000FFF783FB04F16F
:101C70002400FFF77FFBFFF7DDFB012070BD0000B4
:101C800004ED00E02DE9FF4383B0064688461D467B
:101C90004FF00009344654B900BF402080F311884A
:101CA000BFF34F8FBFF36F8F00BF00BFFEE7B8F1E8
:101CB000000F01D1206C08B9012000E0002050B9CC
:101CC00000BF402080F31188BFF34F8FBFF36F8FA9
:101CD00000BF00BFFEE7022D02D1E06B012801D159
:101CE000012000E0002050B900BF402080F311889F
:101CF000BFF34F8FBFF36F8F00BF00BFFEE700F051
:101D00009FF908B9059808B9012000E0002050B9F2
:101D100000BF402080F31188BFF34F8FBFF36F8F58
:101D200000BF00BFFEE700BFFFF75AFBA06BE16BEF
:101D3000884201D3022D38D12A4641462046FEF77B
:101D40006EFE0746A06C68B129462046FFF724F8CE
:101D500028B34FF080503C490860BFF34F8FBFF36A
:101D60006F8F1CE0606A08B9012000E0002068B9AC
:101D700004F1240000F01CFA88B14FF08050324981
:101D80000860BFF34F8FBFF36F8F08E03FB14FF094
:101D900080502D490860BFF34F8FBFF36F8FFFF75F
:101DA00049FB012007B0BDE8F083059818B9FFF79B
:101DB00041FB0020F6E7B9F1000F04D101A8FFF7BD
:101DC000C7FC4FF00109FFF735FBFFF723FDFFF7D5
:101DD00007FB94F94400401C10B9002084F844002B
:101DE00094F94500401C10B9002084F84500FFF725
:101DF00021FB05A901A800F0ADF8F0B92046FEF7D7
:101E0000BCFFA0B104F110000599FFF765FC204666
:101E1000FFF79FF900F018FA002885D14FF08050A5
:101E200009490860BFF34F8FBFF36F8F7CE72046EF
:101E3000FFF78FF900F008FA76E72046FFF789F9F7
:101E400000F002FA0020ADE704ED00E02DE9F05FBC
:101E500080468A4615461E46444654B900BF402077
:101E600080F31188BFF34F8FBFF36F8F00BF00BFA8
:101E7000FEE7BAF1000F01D1206C08B9012000E0A3
:101E8000002050B900BF402080F31188BFF34F8F6E
:101E9000BFF36F8F00BF00BFFEE7022E02D1E06BE1
:101EA000012801D1012000E0002050B900BF4020EE
:101EB00080F31188BFF34F8FBFF36F8F00BF00BF58
:101EC000FEE7FFF727FB00BF4021EFF3118081F30E
:101ED0001188BFF34F8FBFF36F8F00BF0746A06B12
:101EE000E16B884201D3022E2BD194F945B03246E2
:101EF00051462046FEF793FD0BF10100C8B9A06CD6
:101F000040B131462046FEF747FFB8B1B5B10120D8
:101F1000286013E0606A08B9012000E0002068B979
:101F200004F1240000F044F940B13DB101202860E3
:101F300004E00BF1010040B284F845004FF00109C4
:101F400001E04FF0000900BF87F3118800BF484649
:101F5000BDE8F09F70B504460D4654B900BF40205F
:101F600080F31188BFF34F8FBFF36F8F00BF00BFA7
:101F7000FEE755B900BF402080F31188BFF34F8FB3
:101F8000BFF36F8F00BF00BFFEE7FFF729FA1248CB
:101F900003682868401C08B9002619E00F4920682A
:101FA0000968884204D06068984201D801260FE091
:101FB0006068181A2968884209D228686168591A25
:101FC000401A28602046FFF7C3FB002600E00126E8
:101FD000FFF730FA304670BD180000202C000020BA
:101FE0002DE9FF4F85B0804689461746DDE912ABE3
:101FF000B800FFF7F7F8064656B15C20FFF7F2F895
:1020000004460CB1266304E03046FFF731FA00E0E5
:1020100000247CB10020CDE900ABCDE902403A4676
:1020200049464046089BFEF7B4FD2046FEF726FCD5
:10203000012501E04FF0FF35284609B0BDE8F08FDB
:102040000549096809B9012005E00449096809B989
:10205000022000E000207047200000203C0000200B
:102060000149086870470000180000202DE9F04180
:102070004FF0000843480068002876D142480068C5
:10208000451C4148056015BB40480068006808B918
:10209000012000E0002050B900BF402080F31188EB
:1020A000BFF34F8FBFF36F8F00BF00BFFEE737480E
:1020B0000768374800683549086035480760354883
:1020C0000068401C33490860FEF796FF00BF3248A5
:1020D000006885423BD300BF2C480068006808B9FF
:1020E000012000E0002020B14FF0FF302A490860B5
:1020F0002CE026480068C068C4686668B54202D211
:102100002548066022E0201DFFF720F9A06A18B1DB
:1021100004F11800FFF71AF92049E06A09688842BB
:1021200002D91E49E06A0860E16A01EB81011C4A9C
:1021300002EB8100211DFFF747F91A49E06A09689F
:10214000C96A8842C8D34FF00108C5E700BF1548E7
:102150000068C06A00EB8000114951F82000012896
:1021600001D94FF0010805E0FFE70F480068401C67
:102170000D4908600D48006808B14FF0010840465D
:10218000BDE8F0813C00002018000020080000207D
:102190000C0000202C000020340000201C00002037
:1021A000C800002004000020240000202800002097
:1021B00070B50646F068C46854B900BF402080F38B
:1021C0001188BFF34F8FBFF36F8F00BF00BFFEE7D3
:1021D00004F11800FFF7BAF815480068A0B9201DEF
:1021E000FFF7B4F81349E06A0968884202D9114937
:1021F000E06A0860E16A01EB81010F4A02EB8100AD
:10220000211DFFF7E1F804E004F118010B48FFF786
:10221000DBF80B49E06A0968C96A884204D90125DC
:1022200001200849086000E00025284670BD000034
:102230003C0000201C000020C8000020700300208B
:10224000040000202800002070B500240026364835
:10225000006850B900BF402080F31188BFF34F8F52
:10226000BFF36F8F00BF00BFFEE7FFF7B9F82E483E
:102270000068401E2C4908600846006800284ED1BE
:102280002A48006800284AD023E02948C068C4686A
:1022900004F11800FFF75AF8201DFFF757F82549F9
:1022A000E06A0968884202D92249E06A0860E16A66
:1022B00001EB8101204A02EB8100211DFFF784F828
:1022C0001E49E06A0968C96A884202D301201C4994
:1022D00008601748006808B9012000E000200028C5
:1022E000D3D00CB1FEF788FE1648056865B100BF73
:1022F000FFF7BCFE10B10120114908606D1E002DD2
:10230000F6D100200F4908600D48006838B1012659
:1023100030070D490860BFF34F8FBFF36F8FFFF792
:1023200089F8304670BD00003C00002014000020F9
:10233000700300201C000020C800002004000020C2
:10234000280000202400002004ED00E01CB500243B
:10235000FEF7ECFA0E48006858B10E481F21002322
:102360004FF48072CDE900100BA10D48FFF738FE45
:10237000044654B900BF402080F31188BFF34F8F4B
:10238000BFF36F8F00BF00BFFEE720461CBD0000FB
:10239000480000204C000020546D722053766300EA
:1023A000391100002DE9FE4304460D4616461F462E
:1023B000DDF828804FF0000954B900BF402080F3B9
:1023C0001188BFF34F8FBFF36F8F00BF00BFFEE7D1
:1023D0001448006810B3009501960294062D15DA92
:1023E000FFF72EFE022808D10023424669460D4819
:1023F0000068FFF747FC814610E000231A46694653
:1024000008480068FFF73EFC814607E000233A4693
:10241000694604480068FFF719FD81464846BDE853
:10242000FE8300004800002040420F0000201C00F6
:1024300080841E0000802500999E360000403800F0
:1024400000093D0000803E0000004B00404B4C0066
:1024500000204E00808D5B0000C05D000080700099
:1024600000127A0000007D0080969800001BB700E3
:102470000080BB00C0E8CE00647ADA000024F400DB
:102480000000FA0080A81201002D310100366E0113
:1024900040787D01400000000000000000010000C5
:1024A0003E0008000000000000010000A000000045
:1024B0000200000000010000345401000000000090
:1024C000000100002B700600000000000001000069
:1024D00028000000000000000001000027000100AB
:1024E00000000000000100002000000000000000CB
:1024F0000001000050000000020000000001000088
:102500001AAC000000000000000100001794090050
:102510000000000000010000169805000000000007
:102520000001000014000000000000000001000095
:10253000138008000000000000010000A00000005F
:102540000800000000010000100000000000000072
:10255000000100002800000002000000000100004F
:1025600040000000040000000001000060000000C6
:1025700000000000000100005D000C0000000000F1
:1025800000010000500000000000000000010000F9
:102590004E000200000000000001000041AC0100FC
:1025A00000000000000100003C00000000000000EE
:1025B000000100003A800900000000000001000056
:1025C00030000000000000000001000028000000B2
:1025D00000000000000100002700010000000000D2
:1025E0000001000023600600000000000001000060
:1025F0002160080000000000000100001E00000033
:1026000000000000000100001DC0040000000000E8
:102610000001000050000000020000000001000066
:10262000180000000000000000010000140000007D
:102630000000000000010000600000000400000035
:10264000000100000024F40030003000005A620253
:102650009100910000879303D200D20000B4C4041B
:102660001301130100E1F50554015401000E270781
:102670009501950100688909001C4E0E9C260000FA
:102680000000002078000000BC07000014270000B4
:1026900078000020607C0000CC07000000000000F3
:1026A000000000000000000000000000000000002A
:1026B000000000000000000000000000000000001A
:1026C000000000000000000000000000000000000A
:1026D00000000000000000000000000000000000FA
:1026E00000000000000000000000000000000000EA
:1026F00000000000000000000000000000000000DA
:102700000000000000000000AAAAAAAA0000000021
:0427100000000000C5
:04000005000002896C
:00000001FF
